:020000022000DC
:10700000005F002099D0020027CB030085D002004A
:1070100085D0020085D0020085D00200000000006B
:1070200000000000000000000000000045D2020047
:1070300085D002000000000011D2020085D00200BD
:10704000F5D3020033D20300F5D30200F5D30200DA
:10705000F5D30200F5D30200F5D30200F5D3020008
:10706000E9D10300F5D30200F5D302001DD20300DD
:10707000F5D30200F5D30200F5D30200F5D30200E8
:10708000F5D30200F5D30200F5D30200F5D30200D8
:10709000F5D30200F5D30200F5D30200F5D30200C8
:1070A000F5D30200F5D30200F5D30200F5D30200B8
:1070B000F5D30200F5D30200F5D30200F5D30200A8
:1070C000F5D30200F5D30200F5D30200F5D3020098
:1070D000F5D30200F5D30200F5D30200F5D3020088
:1070E000F5D30200F5D30200F5D30200F5D3020078
:1070F000F5D30200F5D30200F5D30200F5D3020068
:1071000001F0FF01102A2BDB10F0070F08D010F858
:10711000013B013A8B422DD010F0070F42B3F6D15C
:10712000F0B441EA012141EA014122F007047FF075
:1071300000070023F0E80256083C85EA010586EACC
:10714000010685FA47F5A3FA87F586FA47F6A5FA08
:1071500087F68EB9EED1F0BC01F0FF0102F0070214
:1071600032B110F8013B013A83EA010313B1F8D1BF
:107170000020704701387047002D06BF35460338A0
:10718000073815F0010F07D1013015F4807F02BFD9
:10719000013015F4C03F0130F0BC0138704700BF2A
:1071A00053B94AB9002908BF00281CBF4FF0FF316E
:1071B0004FF0FF3000F00CB8ADF1080C6DE904CED3
:1071C00003F080FADDF804E0DDE9022304B0704743
:1071D000704700BF10B51C4C94F82C3073B90123D4
:1071E00084F82C3003F066FC48B1184BA362D82316
:1071F000236284F824300823A361237710BD03F0B1
:107200006EFC0028F1D103F073FC0028EDD103F0EF
:1072100036FC38B10E4BA362D823236284F82430A5
:107220000423E9E703F034FC0028F3D103F039FC30
:107230000028EFD103F047FC0028EBD140F2BB114E
:10724000742003F017F900BFF00900202BE60300BB
:10725000FEE50300014B1879704700BF240A0020A7
:10726000054B1A79824283BF1B6800EB400003EB99
:1072700000100020704700BF240A002043F6095286
:10728000C0F3080302FB03F3400A03F5807302FB1B
:1072900000F000EB5320704743F6095CC0F308028E
:1072A00010B50CFB02F2C0F34E24030E43EA012397
:1072B0000CFB04F0090E02F580724FEA411C00EB52
:1072C00052205A01B2EB030E4CEAD36C6CEB010472
:1072D0004FEA841C4FEA8E12B2EB0E024CEA9E6C0F
:1072E0006CEB040C4FEACC0C4CEA527CD200D31865
:1072F00041EB0C01DA03C903801841EA534141F123
:10730000000110BD430B48F2376C0CFB03F34FEA4E
:10731000134C00B5104B43F6095E0EFB1C0000FB3E
:1073200003F35B0D0EFB03FE03EB4C230EF5745CC5
:107330000CF1080CB0EB5C2F08D80EF5807EA0EBAA
:107340005E20C0B20B6010705DF804FB01330020BA
:107350000B6010705DF804FB6F0C0100F8B5274D51
:10736000A94246D8264E274F450F45EAC105A6FB40
:107370000514C0F34F31A40B01EB054107FB1411B9
:10738000A6FB0151890B41EA04411F4C04FB110487
:1073900048F2376C600B0CFB00F04FEA104C43F6E0
:1073A000095E1A480EFB1C4505FB00F0400D0EFB64
:1073B00000FE00EB4C200EF5745C0CF1080CB5EBF4
:1073C0005C2F12D80EF5807EA5EB5E2E5FFA8EFE46
:1073D000069D85F800E00D0628184FEA112141F1BD
:1073E0000001186059601460F8BD01304FF0000EC4
:1073F000EEE796219B2003F03DF800BFFF7F841E3F
:1074000083DE1B43000024F40080841E6F0C010007
:10741000420B48F2376303FB02F2120C43F6095C9D
:10742000074B0CFB120101FB0333013B5B0D0CFB13
:1074300003FC5002B1EB5C2F88BF01301844704749
:107440006F0C010010B5094A92F80034202B03D1CB
:107450005021022003F00EF8590102EB4313BDE85E
:107460001040525858680421104700BF300A0020CD
:1074700008B501B3F0B14FF0FF331A46E0FB01321B
:107480000E498A4203D971216D2002F0F3FF180DD5
:1074900040EA0230C3F30F134FF22441B0FBF1F284
:1074A00003EB0040064B03FB1200B0FBF1F040EA97
:1074B0000240013008BD0846FCE700BF3F420F0014
:1074C000000024F4014B5888704700BF6C0E002068
:1074D00010B5EFF3108472B6064A93790133DBB22C
:1074E00093719379012B01D103F06CFA04B962B660
:1074F00010BD00BF6C0E002070B50C4C267866B92C
:107500000125A0602570FFF7E3FF00F04BFA30B9CA
:107510004FF080432573C3F80453002070BDA36867
:10752000002BFAD09847A660F7E700BF6C0E00204A
:1075300038B5FFF7CDFF00F035FA094C4FF0804524
:1075400040B103F02CFA01232B6104236373002361
:10755000A37338BD032363730123C5F80433F6E72F
:107560006C0E002010B5EFF3108472B60A4B9A79B6
:1075700022B94FF496716D2002F07CFF9A79013A9E
:10758000D2B29A719A791AB9DB7B0BB900F0F8F98B
:1075900004B962B610BD00BF6C0E002008B5054BE3
:1075A0001A7822B100221A731A70FFF7DBFF00204D
:1075B00008BD00BF6C0E002073B51B4D2B7F63B957
:1075C000286A00F0030003F017FA30B1EFF31083DC
:1075D00072B66A7B1AB103B962B602B070BD0122FD
:1075E0006A7303B962B64FF080430822C3F80823D8
:1075F0004FF42073ADF80630BDF80640A4B2631E08
:107600009BB2ADF80630002CF6D14FF0804607480B
:10761000C6F80C4103F015FA85F82540FFF788FFFE
:107620000823C6F80433D8E76C0E0020900E002023
:107630002DE9F041384C94F82630002B69D04FF0FA
:107640008043D3F80071D3F8046157B10122C3F825
:107650000823237B2BB1A368002525730BB1984722
:10766000A5604EB14FF080430022C3F804210222EE
:10767000C3F80823FFF7A0FF4FF080462748D6F84D
:107680000C8194F82550EDB203F0DFF920B140F2FF
:10769000C5116D2002F0EEFE47B1637B032B05D1CF
:1076A0000423637303F07BF901233361B8F1000F06
:1076B00016D04FF080430022C3F80C21637B042BCB
:1076C00002D040F2D711E4E703F01BFAC0B14FF04B
:1076D00080430022C3F8342C02236373FFF742FF78
:1076E0004DB1002384F82530637B022B01D1FFF7D5
:1076F0001FFFFFF737FFBDE8F041084803F0B4B9BA
:1077000003F0E1F90028E2D103F0F2F90028DED11C
:10771000E2E7BDE8F08100BF6C0E0020900E002073
:1077200010B5044C206A00F0030003F065F900284E
:10773000F8D010BD6C0E0020F8B5054650B10278A7
:10774000042A07D8437842B9013B1F2B02D883781B
:10775000212B07D96FF0150076E0002BFAD1837842
:10776000002BF7D1814B0127C3F88070BFF34F8FF7
:10777000BFF36F8F4FF08046C3F880717C4C4FF0A1
:10778000FF33C6F808330023C6F80031C6F80431C9
:10779000C6F80C31A371AB88A38003F018F908B1C7
:1077A0002770A771D6F80C24D6F80C34D20303D571
:1077B000DF0701D500F0F0F840F2F55363802B7835
:1077C000A9782377002222622174A273042B4ED859
:1077D000DFE803F005033B494B000123236203F07C
:1077E000FDF800284ED003F000F9236A03F00303EC
:1077F000984247D1AB79002B3ED1FFF791FF237C14
:107800006BB12B785BB900F0CDF8054602F072FE43
:107810006FF00043002D00F0A580C4E905034FF090
:107820008043D3F80C24D3F80C34D20303D5DB0700
:1078300001D500F0B1F84D4A01230020607384F8AF
:107840002630C2F880311360F8BDFFF741FE4FF0DB
:107850008043D3F80C14D3F80C24CE03F9D5D00709
:10786000F7D50223BAE7434BB8E7434BB6E740F2FC
:1078700016316D2002F0FEFD4FF080430222C3F866
:107880000423BCE74FF080430122DA600022C3F8F2
:107890000421226AC3F8182503F0F1F810B34FF061
:1078A00080534FF08042D3F84432C3F34233C2F8DE
:1078B0003C3503F0E4F810B34FF080430122C3F8E5
:1078C0004C254FF0804301229A600222C3F8042322
:1078D000AA79002A93D1D3F8042391071CD440F24B
:1078E000CD21C6E703F0D4F80028D8D103F0D9F8A9
:1078F0000028D4D103F0E7F80028D0D1D9E703F06D
:10790000C7F80028D8D103F0CCF80028D4D103F070
:10791000DAF80028D0D1D4E7184A1669116941F085
:1079200010011161D3F8043106F010060BB903F011
:10793000F6F84FF08047D7F8043183B1FFF7F0FE37
:1079400026B90E4A136923F0100313614FF08043E8
:107950000222C3F808230022C3F804214FE703F0F2
:10796000DCF8E8E7C4E9053059E700BF00E100E0D2
:107970006C0E0020010002000100030000ED00E099
:107980004FF08042012353600023C2F80031014AC6
:1079900013707047930E0020014B01221A7070473C
:1079A000930E00204FF08043D3F8003123B9034BEE
:1079B000187800F0010070470120FAE7930E0020CC
:1079C000094B4FF0FF32C3F808230022C3F84025CB
:1079D000C3F84021C3F84425C3F84421C3F848251F
:1079E000C3F84821704700BF00800040084B094A97
:1079F0001B78012B16BF4FF440314FF400310023A8
:107A0000C2F84813C2F808130BB9C2F840317047E6
:107A1000980E002000B0004070B5EFF3108472B6ED
:107A2000094A0A4B0025D2F80415D2F804612EB198
:107A3000596801315960C2F80451F4E75B6804B930
:107A400062B6C0E9001370BD00B00040980E00207F
:107A5000094BD3F80435C01A20F07F4323F001030B
:107A60003BB120F07F40B0F5000F8CBF022000201A
:107A700070470120704700BF00B00040104B4FF42A
:107A80000062C3F88020BFF34F8FBFF36F8FC3F83E
:107A900080210C4B01225A609A60D3F80425002AF9
:107AA000FBD10949C3F808134FF44031C3F8481318
:107AB000C3F84021C3F84421C3F80421704700BF34
:107AC00000E100E000B000400200030008B5144BE4
:107AD000D3F8042522F00302C3F80425D3F80825BF
:107AE00042F00302C3F80825102292FAA2F2B2FA79
:107AF00082F2092A04DD0B4840F2913102F0B0FC19
:107B0000C3F810250122DA60074A9268C3F8002200
:107B1000064B4FF48072C3F880211A6008BD00BF85
:107B20000080004099ED0300980E002000E100E085
:107B300008B50A4B4FF48072C3F88020BFF34F8F13
:107B4000BFF36F8F0649C3F8802101204860FFF71B
:107B500037FF044B086100221A7308BD00E100E002
:107B600000800040980E002010B5234C0023FF2217
:107B70004FF0FF314FF0FF30C4E90401237062730E
:107B80006360FFF7D5FFFFF779FF1C4B4FF40062EE
:107B90001A60A1691A4A31B901231360184B0222F5
:107BA000C3F8042310BD174B1748C3F8A805C3F842
:107BB000AC15C3F85C294FF40022C3F80425134A1E
:107BC0000521C2F8401501211160D2F840110029A9
:107BD000FBD04FF40021C3F8081501215160D1609A
:107BE0000021C2F84011C2F84015C3F8A815C3F827
:107BF000AC15C3F8AC15D1E7980E002000E100E009
:107C000000B0004000F00140408100400080004092
:107C1000014BD3E904017047980E0020014BD3F8C3
:107C20000405704700B0004013B56846FFF7F4FE46
:107C3000DDE90004FFF722FB024B0021E4FB030116
:107C400002B010BD0080841EB1F1FF3F08BFB0F14B
:107C5000FF3F2DE9F041424C05460E463AD1414DD9
:107C6000D5F800318BB3404E404BC6F80835FFF7CE
:107C7000BDFE4FF000080123A36084F80D80FFF7DC
:107C800057FFFFF723FF3A4BC5F80081394FC6F87D
:107C9000A8354FF40023C6F8AC75C6F8043502F0D9
:107CA000BBFED5F800312BB10123C5F800817B6004
:107CB000FB60F4E7013041F100010223C4E9040153
:107CC0002370FF236370BDE8F08102F0A5FEC51CA0
:107CD00041F10006D4E90473B34208BFAF42F2D0C9
:107CE000214B224AC3F80825FFF780FE1D4A4FF4B6
:107CF000803125F07F480023C2F808134046C2F8BF
:107D00004813C2F84031FFF7A3FE20B140F22631FC
:107D10006C2002F0AFFBC2F84085C2F84413237810
:107D2000012B06D127F07F473846FFF791FE012847
:107D3000FAD0002301276373A760FFF7F9FEFFF76E
:107D4000C5FE094B27704FF00042C3F804250423F9
:107D50006370044BC4E90456C3F84873B3E700BF2B
:107D6000980E002000B0004000F0014000000880A4
:107D700000B1004000800040032870B52D4B06D9AB
:107D8000011FC9B201292FD940F276310BE0D3E9A6
:107D90000441B1F1FF3F08BFB4F1FF3F06D11B7BA7
:107DA00023B940F255316C2002F064FB2249234D87
:107DB00000F110040123800003FA04F4C5F808431D
:107DC0000B5000F1804101F50041D1F84005101A37
:107DD000022805DDC1F84025C5F80443012002E072
:107DE0000020C1F8400570BD1C782CB15B7883423F
:107DF00002D140F27231D6E7114B124E22F07F458C
:107E00008A0013444FF480348C400022C6F80843A3
:107E10002846C6F848431A60FFF71AFE40B901F534
:107E2000A87146F82150C6F80443C6F84443D5E784
:107E30001046D8E7980E00204080004000800040A7
:107E400040B1004000B00040032837B508D9041FF6
:107E5000E4B2012C19D940F2CA316C2002F00AFBBD
:107E6000234900F1100201239340C1F8083300F5C3
:107E7000A873002241F823201E4B81005A5053F86A
:107E800020300093009B03B030BD1B4D2B7893B185
:107E90006A7882420FD1194A1949C2F80815012B94
:107EA00001D1FFF745FE00232B704FF0FF324FF05A
:107EB000FF33C5E90423134A4FF48033A340C2F8CB
:107EC0000833C2F8483304F5A87352F82300FFF7CB
:107ED000BFFD012818BF0C4B22B24FEA84041CBF1F
:107EE00000211951084B53F822300193019BCAE736
:107EF0000080004040810040980E002000F00140CA
:107F00000000088000B0004040B1004010B50A4BAE
:107F10000446012210B1C3F8442310BDC3F848231E
:107F2000FFF706FE054B4FF0FF304FF0FF31C3E97E
:107F300004011C70F1E700BF00B00040980E002063
:107F40001F4A08B5D2F80433D90311D5D2F840310D
:107F500073B10023C2F84031D2F84005FFF778FD35
:107F600030B14FF48033C2F80833042001F094FD9F
:107F7000134AD2F804339B0311D5D2F8443173B1BC
:107F80000023C2F84431D2F84405FFF761FD30B157
:107F90004FF40033C2F80833052001F07DFD084B93
:107FA000D3F8042132B10022C3F80421054A5368F2
:107FB00001335360044B4FF40062C3F8802108BDC5
:107FC00000B00040980E002000E100E038B5364CCB
:107FD000637BFF2B64D0237883B10122022B2273B1
:107FE00019D1324B4FF40022C3F808250023237027
:107FF0004FF0FF324FF0FF33C4E904232C4BD3F88A
:10800000042310030DD5D3F84C2152B140F20F4197
:108010006C2002F02FFA022360782370FFF714FF20
:10802000ECE7D3F8042351030DD5D3F8483153B10D
:108030000220FFF709FF1F4B4FF48072C3F8802125
:10804000022001F029FD1A4BD3F8042392030DD529
:10805000D3F8443153B10120FFF7F6FE154B4FF42E
:108060008072C3F88021012001F016FD104DD5F873
:108070000433DB0316D5D5F840319BB10020FFF760
:10808000E3FE0C4B4FF48072C3F880210020FF23E5
:108090006373A060C5F80002BDE8384001F0FCBC85
:1080A0000620F9E738BD00BF980E002000F001401F
:1080B0000080004000E100E02DE9F04F97B01C4641
:1080C000CDE90212DFF8FCA28046FFF7A1FD4FF0D8
:1080D00080420123C2F80835DAF800200F46136009
:1080E000B949082202EB441253185558B3F80E90C0
:1080F000CDF81090D3E901B201EB441C06921C7B31
:108100005A7BDB6800920CF1080C07930646BCE82A
:108110000F000DF1380EAEE80F009CE803008EE86A
:10812000030025F07F40FFF7A9F84B4601331C44BC
:10813000A64B9842044400F237829C4200F3E4804C
:10814000002CC0F2C180FFF72DFC009B012B0246E2
:1081500008D0DAE90613B3F1FF3F08BFB1F1FF3FE2
:1081600000F0B7800192FFF7ADF940F25633984224
:10817000019A00F0D78040F2F553984200F0CF808A
:10818000B0F5C67F00F0C5800023019300210320D5
:108190000591B7F1FF3F08BFB6F1FF3F1FD0AE42D8
:1081A00077EB0B03C0F08280B6EB050C67EB0B039B
:1081B000BCF5000F73F1000380F00082A5EB060C04
:1081C000BCF1000F33460ADD0598002800F0AD80B1
:1081D0009AF8200000280CBF0846002000E0434623
:1081E00015F1FF39A9EB030C4BF1FF3184454B46E8
:1081F00057DB002A41D00993029B0891B9EB08088C
:1082000061EB03020292FFF75DF940F2563C6045D4
:10821000DDE90813029A00F0DD8040F2F55C60456C
:1082200000F0BE80B0F5C67F14BF0920162080453F
:1082300072F1000280F0BA80039A012A00F0CC802B
:10824000059A002A73D1B7F1FF3F08BFB6F1FF3F8F
:108250006DD0B6EB090C67EB0102BCF1050F72F1B2
:10826000000080F28481BCF1010F72F1000318DA82
:1082700039463346059FB14668E0DAE90620B0F199
:10828000FF3F08BFB2F1FF3FB5D0DDF804C0AA1A26
:108290006BEB0000624570F10002ACD2009A012A3B
:1082A000A9D00026304617B0BDE8F08FB5EB060C1C
:1082B0006BEB0703BCF5000F73F1000380D340F2B2
:1082C0003171702002F0D6F804F1F45404F59024D2
:1082D00039E700287FF446AF0190FFF7F3F840F24A
:1082E00056339842019A00F04B8140F2F553984280
:1082F00000F01D81B0F5C67F00F01F81012303202F
:1083000011460192059344E704F1614404F5F70432
:1083100019E700210D2303200193059139E732234A
:10832000019333E71C23019330E7084658E748469A
:1083300005930291FFF788FC0299059B0027B1F194
:10834000FF3F08BFB9F1FF3F00F0338123F07F40CA
:108350002A1A22F07F42013AB2F5000FA1D2069B01
:108360005B191B1A23F07F43B3F5000F99D80291D4
:10837000FEF784FF164B0299A4EB000898453BD307
:10838000041B9C42C0F0DF80104B984530D89C42C3
:1083900040F22881C4F1614404F5F704A0462CE0C2
:1083A0003B20804572F10002FFF446AF0593009B2D
:1083B00002915F1E484618BF0127FFF745FC059B49
:1083C0000299BCE7B80E0020300A0020FF7F841E0F
:1083D0000040420F25202AE7B7F1FF3F08BFB6F162
:1083E000FF3F00F0F58039463346B1460027ADE740
:1083F00008F1F45808F5902844467D4B93F828304E
:1084000023B9049B1E33A34280F2A580039B012B5A
:1084100004D001200291FFF717FD0299049B4BB194
:10842000A8EB0302012000230291FFF7A5FC0299AB
:10843000002854D00023424618460291FFF79CFCC6
:108440000299064600284AD0009BDAF81820012B32
:10845000DAF81C3000F08480002F44D1B3F1FF3FE4
:1084600008BFB2F1FF3F00F098800120FFF74EFDFA
:108470009AF82030002B40F08980049A1932A242E9
:1084800080F2A1800024A8EB020223460220FFF71D
:1084900073FC30B1DAF800301C604FF08043C3F851
:1084A0000845069B1093079B119300238DF85030CD
:1084B0000A934FF0FF324FF0FF33CDE90E5BCDE969
:1084C0000C230AAD0FCD4A4C0FC40FCD0FC495E855
:1084D0000F0084E80F00304617B0BDE8F08F012090
:1084E000FFF7B2FCDDE6B3F1FF3F08BFB2F1FF3F9B
:1084F0000BD00091FFF736F84FF0FF324FF0FF330B
:10850000CAE906230099002FB2D0019BB9EB030200
:1085100061F100030520FFF72FFC00285DD09AF8D9
:108520002030002BA9D101238AF82030A5E7322181
:1085300001233520019105932BE60D210123102005
:108540000191059325E62A4B93F828306442A04612
:10855000002B7FF45BAF4FF4F261702001F08AFFD3
:10856000B3F1FF3F08BFB2F1FF3FCCD0C1E74846AF
:1085700008930291059FFFF767FB0299089BDEE6CF
:108580001C2101231F200191059302E60520FFF71E
:108590005BFC00238AF820306FE7FEF799FF02F0BA
:1085A0003BFACAE9060160E740F22141702001F080
:1085B00061FF40F27C71702001F05CFF40F2357188
:1085C000702001F057FF40F2BA71702001F052FFA5
:1085D00040F2A361702001F04DFF40F2262170208F
:1085E00001F048FF40F65801702001F043FF00BF42
:1085F000380E00202DE9F04F8F4F97F8214004EB03
:1086000044033B4483B05E7A202E48D08B4BE5B2C6
:108610006400002B00F08980894BDFF82892002B42
:108620005FD006EB451207EB420A4FEA45189AF86D
:108630002830013BDBB2052B34D8834A12F803B053
:10864000BBF1090F2ED0AFF30080EFF3108372B6A9
:108650002C443C449AF829206272A27AB24204BFA8
:108660002022A27213B9AFF3008062B6B044730146
:1086700007EB480809EB4616012259F803307068E9
:1086800088F828205946984797F8214004EB44037E
:108690003B44E5B25E7A202E4FEA4404C1D103B0D8
:1086A000BDE8F08F40F26E61702001F0E3FE62B62B
:1086B000B044730107EB480809EB4616012259F84C
:1086C0000330706888F828205946984797F8214069
:1086D00004EB44033B44E5B25E7A202E4FEA4404A7
:1086E000DDD006EB451207EB420A4FEA45189AF82F
:1086F0002830013BDBB2052BD4D8534A12F803B023
:10870000BBF1090FCED0AFF30080EFF3108372B648
:108710002C443C449AF829206272A27A964204BF03
:108720002022A272002BC3D1C1E7454BDFF818B15C
:10873000DFF810A14FF02009002B51D006EB4512B5
:1087400007EB42024FEA451892F82830013BDBB2B2
:10875000052BA7D81BF803100929A3D0EFF310832A
:1087600072B62C443C4492F829206272A27A964256
:1087700008BF84F80A90002B54D0B04407EB480897
:1087800073010AEB461601225AF80330706888F824
:108790002820984797F8214004EB44033B44E5B276
:1087A0005E7A202E4FEA4404C8D178E762B6B0441E
:1087B000730107EB48080AEB461601225AF803300A
:1087C000706888F82820984797F8214004EB440304
:1087D0003B44E5B25E7A202E4FEA44043FF45FAF9B
:1087E00006EB451207EB42024FEA451892F8283093
:1087F000013BDBB2052B3FF655AF1BF803100929EF
:108800003FF450AFEFF3108372B62C443C4492F81F
:1088100029206272A27A964208BF84F80A90002B3F
:10882000C5D1C3E70191AFF3008062B6B0440199AE
:1088300007EB4808A4E700BFB80E002000000000C6
:1088400000000000300A00205CE603002DE9F04F34
:1088500085B00D4614461F469DF838B0FEF7D8FD8A
:108860002E686968031947F10002B342019372EB65
:1088700001030292C0F0CA80DFF8A891DFF8A88156
:108880000BEB4B034B440393DA46039B1C7A202CDF
:108890003BD040F2F5578C460FE06B7B012B02D0AA
:1088A000537D012B56D004EB4A1409EB440494F891
:1088B0002940202C29D0D5E9006C08EB44124FEA5E
:1088C000441B91681369D0685B1840F100009E4218
:1088D0007CEB0003E1D240F2563740F2F55608EB4C
:1088E0000B0C2968AB68DCF808006A685B1842F179
:1088F00000029842DCF80C3093411AD39CF81530F2
:10890000012B02D06B7B012B03D0012005B0BDE809
:10891000F08F411A0091FEF7D5FDB84200993FD083
:10892000B04228D0B0F5C67F14BF01230E23994270
:10893000EBDA08EB0B032A7C197E91421FD904EB7A
:108940004A1409EB440494F82940202CDDD04FEA66
:10895000441BC4E7761AFEF7B5FD40F25633984241
:1089600020D0B84209D0B0F5C67F14BF01230E2332
:108970009E42B0DB97E73323D9E73323F8E7D3E907
:1089800002611C695B7DA61941F10001012B0BD02E
:10899000019BB342029B8B4138D3C5E9006174E768
:1089A0001D23C4E71D23E3E76B7B012BF0D000916F
:1089B000FEF788FD40F25633984200992CD040F2E1
:1089C000F553984226D0B0F5C67F14BF01230E237D
:1089D0009C42DDDAFEF776FD40F2563398421FD016
:1089E00040F2F553984219D0B0F5C67F14BF012666
:1089F0000E26C344DBF80830DBF80C10F618019B98
:108A000041F10001B342029B8B41C6D2002005B068
:108A1000BDE8F08F3323DBE71D23D9E73326E8E7F2
:108A20001D26E6E7B80E0020300A00202DE9F047A9
:108A3000154692F8008092F80BC0AF7A12891C4656
:108A400086B00023E3602361C4E9003327749DF8F6
:108A5000389084F80DC00646A3606361E28184F813
:108A600011800F46B8F1000F42D1FEF715FCD5E991
:108A700004C24C4BC31841F1000E9C4572EB0E032F
:108A80000AD3013E47F1FF37C4E900674FF47A7318
:108A9000A36006B0BDE8F087263041F100018445AF
:108AA00072EB0103EDD3288901300021844572EB7C
:108AB00001036AD3BCEB000062EB010104F10C037B
:108AC000009303AA04ABFEF749FC039B6A6828895C
:108AD000473313441844FEF79BFCDDE90432C01A07
:108AE00020F07F40C4E90032A06006B0BDE8F08706
:108AF0002D4804A9801A04F10C02FEF703FC2B4B4D
:108B00001B78202B24D02A490B69D1E90521053394
:108B100042F1000A13EB01084AF1000A6B68227B5C
:108B2000E089473310441844C4E9008AFEF770FC1A
:108B30003246A0603B462869CDF800902146FFF7F9
:108B400085FE0028A5D1C4E9006706B0BDE8F0871E
:108B5000637B16F1090847F1000A012BDED0FEF70E
:108B600021FF0028DAD1FEF7ADFC40F256339842DF
:108B70000ED040F2F55398420FD0B0F5C67FCDD15C
:108B800016F1160847F1000AC8E74046414695E746
:108B900016F1250847F1000AC0E716F13B0847F136
:108BA000000ABBE70040420FFF7F841E300E00200A
:108BB000380E00202DE9F047374DDFF8E08000EB5C
:108BC00040032B4406461C7A4700FFF727F84FF076
:108BD000200C4FEA461E08EB44110EEB0403D1F8BB
:108BE00008A00A69AAEB000929F07F49B9F5000F2E
:108BF00005EB43030DD812EB0A02121A22F07F4252
:108C0000B2F5000F05D8BCF1200F0BD12046BDE80E
:108C1000F08793F82930202BA4461C46DBD1BCF109
:108C2000200FF3D0BB192B440CEB461205EB42028C
:108C300093F8088092F829201A72710144464FF087
:108C4000040E0B1905EB430322469445204683F896
:108C500028E093F82940F4D1BB192B440A4493F837
:108C60000AE0BEF1200F5FFA8EFC18BF8C443E4430
:108C700018BF05EB4C0C05EB4202354408BF83F8E6
:108C800009804FF0200318BF8CF82980A87282F861
:108C900029302046BDE8F087B80E0020300A0020B9
:108CA0002DE9F0414E4D01EB41032B440C461E7A59
:108CB000202E80464FEA410741D14A4B0BB1AFF31A
:108CC000008001F0A9FE95F82230202B0AD0464BF7
:108CD000D3E904E210F1020C41F10003E64572EB26
:108CE000030331D3202E0AD042463346FFF7E4F97E
:108CF00000283FD085F822600220BDE8F081D5E948
:108D00000623B3F1FF3F08BFB2F1FF3F1FD195F833
:108D1000203043BB0420FFF797F801F08BFE0020C2
:108D2000FFF7F4F829684FF08042202085F82200F0
:108D300000230B600120C2F80835BDE8F081084629
:108D4000FFF738FF8642B8D00020BDE8F081FEF77B
:108D500009FC4FF0FF334FF0FF32C5E9062395F8C9
:108D60002030002BD6D00520FFF76EF8002385F8C1
:108D70002030CFE73B192B4406EB441205EB4202AF
:108D800093F808E092F829201A72610173460420D2
:108D9000CA189C4605EB4202664592F8293082F8D3
:108DA0002800F5D13B192B443C44987A2028C2B2C4
:108DB00018BF5218614418BF05EB420205EB410190
:108DC000254408BF83F809E04FF0200318BF82F85C
:108DD00029E085F80AC081F829300020BDE8F0813B
:108DE000B80E002000000000380E0020F8B5194A27
:108DF000194D002342F2200020214FF0FF364FF0A2
:108E0000FF37A972288185F82130136082F8283055
:108E1000C2E90267AB73C5E906671C4685F82210F4
:108E200085F8203005F1280202F814300134202C96
:108E3000FAD101260948EE7301F09AFB084B18702D
:108E4000084B1C7001F0F4FB2860FEF78DFE85F8DE
:108E50002360F8BD380E0020B80E0020F585020012
:108E6000680E0020300E00202DE9F04F85B001F093
:108E7000D3FDC04E0746884601F0DCFDD6E902234B
:108E8000B3F1FF3F08BFB2F1FF3F05D04FF0FF3213
:108E90004FF0FF33C6E9022396F82830ABB94FF400
:108EA0000C71B069FEF7E4FA33697269B169023393
:108EB00042F100025B1842F100021B1842F100026D
:108EC0009F4278EB020380F06181AB4C4FF0FF30A2
:108ED0004FF0FF31FEF7B8FEE37B002B40F04581F9
:108EE000A64991F800B00122BBF1200FE27300F017
:108EF000378120220A7084F82220A373336094F80B
:108F0000213003EB430AA2445FFA83F99AF8085030
:108F10005B009542009307D0994B03EB45102A461E
:108F2000407E012800F0C580009BDFF858A203EBCB
:108F30000908202DA0444FEA491708D04846FFF7FA
:108F400039FE854203D098F80850202DF6D1BAF1A9
:108F5000000F01D0AFF3008001F05EFD94F82230E5
:108F6000202B09D0D6E9042310F1020E41F1000CA8
:108F7000724573EB0C03E6D3202D38D02B4601222B
:108F8000FFF79AF8002859D084F8225007EB0B031A
:108F900004EB430393F82820022A1DD1009A4A4487
:108FA0002244062183F82810917ACBB220291CBFD5
:108FB000DB1904EB43035F4418BF83F829B0009B1F
:108FC00008BF82F809B04B44234404EB470783F8F9
:108FD0000AB0202387F82930FF232374009B4B44D9
:108FE0001C44637A202B5DD105B0BDE8F08FD4E935
:108FF0000623B3F1FF3F08BFB2F1FF3F07D0FEF7F2
:10900000B1FA4FF0FF324FF0FF33C4E9062394F872
:109010002030002B3FD10420FEF716FF01F00AFD9F
:109020000020FEF773FF21684FF0804200232020CC
:1090300084F822000B60C2F80835A7E77B1904EB1F
:10904000430398F8080093F8293088F8083002465E
:1090500004211346BA1804EB42029D4282F82810FC
:1090600092F82920F5D198F80A1088F80A30CAB287
:1090700020291CBFD21904EB42023B4404EB4303FA
:1090800018BF82F829004FF0200208BF88F80900B5
:1090900083F8292057E70520FEF7D6FE002384F841
:1090A0002030B8E7384B187805B0BDE8F04F01F034
:1090B0007BBA0978202914D0316970694F1DB169D4
:1090C00040F10000791840F10000019003EB4213D9
:1090D000D3E9020288420198824128BFC3E9021005
:1090E00022E701FB0531487D17F1090148F1000C29
:1090F0000128CDF804C0E9D0CDE90251FEF752FCB9
:10910000DDE902211E4B10B19AF80850DEE7CDE9E7
:109110000221FEF7D7F940F25635A842029A184BC1
:109120000CD040F2F555A84214D0B0F5C67F039993
:109130000AD0009848442044057AC7E717F1250172
:1091400048F100000190F4E717F1160148F1000022
:109150000190EEE717F13B0148F100000190E8E7CC
:109160004FF43171702001F085F940F2C121702077
:1091700001F080F9380E0020B80E0020300E0020DB
:10918000300A002000000000680E0020074B084A4B
:109190001B78580102EB4313082112585868904776
:1091A00040F2B621702001F065F900BF300E0020BA
:1091B000300A002070B5134C0D460646FEF7B0FA93
:1091C00094F8213004F1280CD9B20CEB831C002355
:1091D00002E00133202B12D01CF81320D8B2002A51
:1091E000F7D103EB4111084A04EB4104590102EBAA
:1091F00043135650012284F828205D6070BD184644
:1092000070BD00BFB80E0020300A00201F280AD809
:109210000C4991F8213000EB431301EB430393F821
:109220002820012A01D00020704791F8213000EB5E
:10923000431301EB43034FF0000C104683F828C0A2
:10924000704700BFB80E002010B5094C04EB401465
:10925000D4E90201FEF720F8227DE38A9B1803F18E
:1092600001034FF000025241181842EB010110BDFA
:10927000300A00202DE9F04FB14A536891B0C3F392
:10928000080303900791002B40F03D8208230693CA
:10929000079B1B78012B00F2E882DFF8A8B2BBF134
:1092A000000F04D0002140F24350AFF300800023B0
:1092B000DFF894A2DFF8948204930124BBF1000F3D
:1092C00004D000214FF4AA60AFF3008024B9A04B72
:1092D0000BB1AFF3008062B69AF821305FFA83F9E0
:1092E000CDF814904FF000038AF81030069B002B45
:1092F00040F0AB80BBF1000F04D0002140F264507D
:10930000AFF3008001F088FB059B0093079A0AAB3E
:109310000446FFF78BFBBBF1000F04D0002140F2A5
:109320006C50AFF30080039B03EB49130AEB43033C
:109330004FEA491693F82830013B012B00F2CB800D
:10934000DDE90A3224F07F441D1B25F07F4121F026
:109350000101002940F0D680039A09EB49035344E8
:10936000B218997A0AEB4202042082F828002029D8
:109370004FEA49020992CAB200F015823244039BB7
:109380000AEB420282F829301A464FEA49034B445D
:10939000534416440AEB46069A72202386F8293075
:1093A000002304930125BBF1000F04D0002140F2FB
:1093B0007150AFF30080674B0BB1AFF30080EFF358
:1093C0001086344672B69AF81030002B7FF476AFD0
:1093D000039B0AAF08EB43140FCF08340FC497E880
:1093E000030084E80300A5B1069B002B00F0B281C6
:1093F000049B23B1584B1B78202B00F0FC819AF87A
:109400002130DB4303F001038AF82130FF238AF87F
:10941000103026B94E4B0BB1AFF3008062B6BBF1F2
:10942000000F04D000214FF4B560AFF30080002D91
:1094300053D1BBF1000F04D0002140F2B450AFF380
:109440000080284611B0BDE8F08F059A434B551CAB
:1094500005F0010503EB821E03EB851C17B2BEE885
:109460000F00ACE80F00BEE80F00ACE80F00BEE84C
:109470000F00ACE80F009EE80F00A9468CE80F0033
:109480002EB2BBF1000F04D0002140F2DE30AFF36A
:109490000080334B07EB470706EB4606DA19D95B2A
:1094A0009278995333449A70BBF1000F0CD000218D
:1094B00040F2E230AFF30080BBF1000F04D0002196
:1094C00040F25A50AFF300809AF81030002B7FF42E
:1094D000F5AE05950EE7002565E79AF8213003EB18
:1094E000430353445B7A202BA3D0BBF1000F04D07D
:1094F000002140F2AF50AFF300801A4B187801F012
:1095000053F896E725F07F45B5F5000F3FF624AFF9
:109510000C99C9180C1B24F07F44B4F5000F3FF6DA
:109520001BAF09EB490151440C7A4FEA4901202C49
:10953000099100F045812021944604911A4627E0C4
:1095400000ED00E000000000B80E0020300A00200E
:109550000000000000000000300E0020E00E00209F
:10956000C00E0020680E00209DF83510012903D0A0
:10957000417D012900F0B18033190AEB430393F8D0
:109580002930202B00F02B81DDE90A2C04941C46A5
:1095900008EB4410650187680169C368C91943F184
:1095A000000E8A427CEB0E03DED213466246049F15
:1095B0000C9908EB0500C918D0F808C042F1000268
:1095C0008C45C16871EB020275D3427D012A03D03C
:1095D0009DF83520012A59D0049B9F4200F0EA8073
:1095E000202F00F04781049B202B06EB07030AEB9A
:1095F000430393F8292000F02F81049BF3180AEB12
:10960000430393F8294083F8292022460520B31804
:109610000AEB430311468F4293F8292083F8280070
:10962000F5D1099B4B445344987A202808BF5C72BB
:10963000099B4B44C1B253441CBF89190AEB410139
:109640009F72039B18BF81F82940F318F1190AEBA8
:1096500043030AEB4101202081F8290083F82920E7
:10966000049B834200F0B2801C4634440AEB44045D
:10967000039B84F8293000230493039B1E440AEBC8
:109680004606032386F8283001258CE6ACEB03035D
:109690000893FDF717FF40F256339842089B55D0C8
:1096A00040F2F55290424DD0B0F5C67F14BF012272
:1096B0000E229A4290DD45449DF838302A7E9A4227
:1096C0004FD933190AEB4303274693F82940202C3E
:1096D0006CD0DDE90A3265016AE7D71BFDF7F2FEBF
:1096E00040F25633984233D040F2F55398422BD093
:1096F000B0F5C67F14BF01220E22BA427FF73CAFFD
:10970000DDE90A3253E7103B59B2002943DB01F18E
:10971000604101F5614191F800335B090693002B2C
:109720007FF4B6AD584B1B78202B00F0A880079B28
:109730001B780693002B3FF4B0AD40F23C517020F3
:1097400000F098FE3322B4E73322D6E71D22B0E7BB
:109750001D22D2E7FF238AF81030002E7FF45FAE7F
:1097600058E6099B039A4B445344B218997A0AEB82
:1097700042020420202982F82800CAB208D03244CC
:10978000039B0AEB420282F829301A46099BFEE548
:10979000039A5A72FAE703F00F03043B13441B7E4B
:1097A0005B090693BBE7039A5A72EEE5049B9F425E
:1097B0007FF419AF202B11D1099B4B4453441C7AE1
:1097C000039BF3180AEB430383F82940099B039A90
:1097D0004B4453441A72012304934EE71C46331939
:1097E0000AEB430393F82920039BF3180AEB430386
:1097F00083F8292039E705990220FFF751FA00285C
:109800007FF4FDAD9AF82130039F03EB43015144EF
:1098100007EB43128C7A0AEB42020420202C82F8D8
:109820002800DDB24FEA4312E0B24FEA430319D0F9
:1098300011180AEB410181F8297039462B44534431
:109840000A440AEB420299722023049D82F82930CF
:10985000002E7FF4E4ADDDE5099B4B4453441C7AB4
:109860001A72D2E64F723946E8E74FF4A8617020C9
:1098700000F000FE4FF4E871702000F0FBFD40F2B4
:109880003951702000F0F6FD300E00202DE9F84F20
:109890007B4CDFF8F08105464FF0010B04F1080A1C
:1098A000B8F1000F04D0002140F2C650AFF30080A1
:1098B000BBF1000F04D1744B0BB1AFF3008062B663
:1098C0004FF000032374B8F1000F04D0002140F2E0
:1098D000CB50AFF3008094F821606C4BB146013659
:1098E00006F0010703EB891E03EB871CBEE80F009F
:1098F000ACE80F00BEE80F00ACE80F00BEE80F00B8
:10990000ACE80F009EE80F003E468CE80F00B8F16F
:10991000000F04D0002140F2DE30AFF3008009EBED
:10992000490907EB47070AEB09033AF809209B7836
:109930002AF807205744BB70B8F1000F04D000216B
:1099400040F2E230AFF30080237C03F0FF01002BF4
:1099500040F08680B8F1000F03D040F2D550AFF34D
:10996000008005EB461304EB4303770193F82820AE
:10997000032A73D106EB4602224492F808904D4523
:1099800078D0B9F1200F69D04B4601E0202B65D08B
:10999000FA1804EB4202194692F829309D42F5D19B
:1099A000202D5BD07B19394404EB430304EB4101C8
:1099B00093F8293081F82930B8F1000F0CD000213C
:1099C00040F24B30AFF30080B8F1000F04D000211B
:1099D00040F2DA50AFF300802F4404EB4707012335
:1099E00087F82830B8F1000F04D0002140F2E3508E
:1099F000AFF30080264B0BB1AFF30080EFF3108B79
:109A000072B6237C002B7FF44BAF4D4503D1214B25
:109A10001B78202B1CD094F82130DB4303F001038A
:109A200084F82130FF2323740124BBF1000F04D1FB
:109A3000154B0BB1AFF3008062B6B8F1000F04D044
:109A4000002140F20560AFF300802046BDE8F88FAA
:109A500031460220FFF724F90028DCD10024E4E796
:109A6000B8F1000F3FF424AF002140F2D150AFF322
:109A7000008015E7202DF1D093F8293013729BE771
:109A8000B80E00200000000000000000E00E0020E2
:109A900000000000300E002070B506280DD8DFE869
:109AA00000F01C52040C0C740D00B14A4FF08041C0
:109AB00012680123C1F80835136070BDAD4D2B78D5
:109AC000202B00F09180AC4C5A0104EB4313A258B8
:109AD0005868BDE8704005211047A54CD4E906231D
:109AE000B3F1FF3F08BFB2F1FF3F00F0D080A34EBB
:109AF0000120FEF70BFA737F012B04D0FDF752FF14
:109B0000002800F030819B4D2B78202B00F09B80AB
:109B1000FF23A373D6E90223B3F1FF3F08BFB2F1DD
:109B2000FF3F05D00520FEF727F9002800F0168139
:109B30002B78914A590102EB4313BDE8704052580B
:109B40005868012110478B4D2B78202B00F0A68000
:109B50008A4E737F012B04D0FDF724FF002800F00C
:109B6000F380834CD4E90623B3F1FF3F08BFB2F181
:109B7000FF3F61D02B78804A590102EB4313BDE8C7
:109B800070405258586800211047794C94F82030A2
:109B90007BB1D4E90623B3F1FF3F08BFB2F1FF3F29
:109BA00000F0A2800120FEF7B1F9002384F82030F4
:109BB00070BD704D2A78202A00F09D806F4E4FF0C6
:109BC000FF324FF0FF33C6E90223A37B002B00F0E6
:109BD000B6802B78684A590102EB4313BDE8704008
:109BE0005258586806211047614890F8213003EB1D
:109BF00043010144DAB20B7A202B00F0AA8003EB78
:109C0000421200EB420292F829400C72FF210174CB
:109C1000022182F82810584C58492B700022C27338
:109C200081F8282004EB4312127E002A7FF44CAF07
:109C300000F042FD2B7847E7FDF74AFC00F0ECFE10
:109C4000C4E9060196E794F82130DAB203EB430346
:109C50002344197A20297CD001EB421204EB420202
:109C600092F829001872FF232374434B297003EBE9
:109C700041110023097EE37386F82830022382F81D
:109C8000283000297FF444AF00F016FD40E7FDF7CF
:109C90001FFC00F0C1FEC4E9060128E7344A92F82F
:109CA000213003EB43001044DBB2017A202950D06D
:109CB00001EB431302EB430393F829400472FF20A6
:109CC0001074022083F828002B4B297003EB4111FC
:109CD0002A4E097E0023D37386F8283000297FF4AA
:109CE00038AF00F0E9FC34E7FDF7F2FB00F094FE3A
:109CF000C4E9060156E794F82120D1B202EB4202F2
:109D00002244107A202824D000EB411104EB4101B9
:109D100091F829601672FF222274174A287002EB0C
:109D20004010164E027EE37386F82830022381F835
:109D30002830002A7FF443AF00F0BEFC3FE740F23A
:109D40004361702000F096FB40F25161702000F0FA
:109D500091FB40F24721702000F08CFB40F22F6114
:109D6000702000F087FB40F22961702000F082FB38
:109D7000B80E0020300E0020300A0020380E0020DF
:109D800070B5274B1A78202A86B044D0254CD4E9E8
:109D90000213B3F1FF3F08BFB1F1FF3F36D1224DAF
:109DA00005EB42150646D5E90201FDF775FAEA8A88
:109DB0002B7DD31803F101034FF0000252419B1990
:109DC00042F1000218180DF10B0342EB0101009360
:109DD00003AA04ABFDF7C2FA9DF80B20DDE90431BC
:109DE0000F2A94BF002201229B1841F10001C4E90F
:109DF00002310E4B9B7B13B9012006B070BDD4E934
:109E000002230520FDF7B8FF06B070BD40F62F0114
:109E1000702000F02FFB40F62E01702000F02AFB8E
:109E2000300E0020380E0020300A0020B80E00202E
:109E30002DE9F04F8D4B1E7887B0202E019000F059
:109E400010818B4F8B4D97F8213003EB43033B443C
:109E5000804628681C7A2B6903930DF11302AB69C5
:109E600002938946404405A9FDF74CFA824BA8F1BC
:109E700032029A4261D8DFF80482059B696908EBD7
:109E80004616B2689B1832699B182A699B1A23F000
:109E90007F40B0F5000F50D897F821A0AB61202C7F
:109EA00085F820905FFA8AFA18BF4FF0200B00F077
:109EB000CB8008EB441C9B18DCF8080041F1000142
:109EC0009842DCF80C308B414FEA44164ED39CF894
:109ED0001530012B02D06B7F012B32D00520FDF70E
:109EE000B3FF97F821104FF0FF324FF0FF33BBF173
:109EF000200FC5E90223C9B240F0A48001EB410163
:109F0000394420240B7A594A97F82110127802EB31
:109F1000411207EB420282F829302B68019A134460
:109F20002B60FF233B74202C40D0554B187800F059
:109F30003BFB002007B0BDE8F08F012007B0BDE873
:109F4000F08FA0EB0209FDF7BDFA40F256339842BC
:109F500020D040F2F55398421AD0B0F5C67F14BF16
:109F600001230E234B45B9DD95F820904644337EFE
:109F70004B4511D904EB4A1307EB430393F82930FF
:109F8000202B17D0A346D5E904211C46AB6990E7E6
:109F90003323E7E71D23E5E7DDE902312A695B1892
:109FA0009B1A0220AB6107B0BDE8F08F002007B01C
:109FB000BDE8F08F0520FDF747FF4FF0FF324FF06F
:109FC000FF3397F82110C5E90223C9B201EB410321
:109FD0003B4404EB411207EB420293F808A092F8CD
:109FE00029201A724FEA410C480153464FF00508E8
:109FF00000EB030E07EB4E0E1A4694421E468EF8F7
:10A0000028809EF82930F3D10CEB010EBE44614448
:10A010009EF80A90B9F1200F5FFA89F818BF8044C2
:10A020003944024418BF07EB480807EB42028E721E
:10A030004FF0200114BF88F829A08EF809A082F8FB
:10A04000291060E75C46C1E70520FDF7FDFE97F8A3
:10A0500021104FF0FF324FF0FF33C5E90223C9B2A0
:10A060004CE74FF40961702000F004FA300E002034
:10A07000B80E0020380E0020CE3F420F300A0020DC
:10A08000680E00202DE9F04FA64C94F8213000EB2B
:10A09000431304EB430383B093F82830002B00F004
:10A0A0003C8194F82170DFF880820546FFB2B8F158
:10A0B000000F04D0002140F6CF00AFF300807E01F6
:10A0C00005EB471704EB4707B8F1000F40F0E880B5
:10A0D000771904EB470797F82830012B09D0043B88
:10A0E000022B40F2D08000F018FD97F82830012BA9
:10A0F000F5D1DFF838B201230193ABF1200AB8F1B2
:10A10000000F04D0002140F6E600AFF30080019B71
:10A1100023B9874B0BB1AFF3008062B64FF0000359
:10A120002374B8F1000F04D0002140F6EB00AFF328
:10A13000008094F82160B1460BEB891EBEE80F0049
:10A14000013606F001070BEB871CACE80F00BEE8F8
:10A150000F00ACE80F00BEE80F00ACE80F009EE86F
:10A160000F003E468CE80F00B8F1000F04D000212C
:10A1700040F2DE30AFF3008009EB490907EB4707F7
:10A180000AEB09033AF809209B782AF8072057447C
:10A19000BB70B8F1000F04D0002140F2E230AFF301
:10A1A0000080237C03F0FF01002B40F08E80B8F18B
:10A1B000000F03D040F6F500AFF3008006EB460336
:10A1C00023444FEA46095F7ABD4200F09B80202F6E
:10A1D00030D0700101E0202F2CD0C31904EB4303D1
:10A1E00039463A4693F82970BD42F4D1202D21D04A
:10A1F0000144284404EB400004EB410190F829306D
:10A2000081F82930B8F1000F06D0002140F2433028
:10A210000192AFF30080019A09EB060323449B7A75
:10A220009F4260D0B8F1000F0CD0002140F24B30BB
:10A23000AFF30080B8F1000F04D0002140F6F90020
:10A24000AFF300803B4B0BB1AFF30080EFF3108313
:10A25000019372B6227C002A7FF451AF84F821600A
:10A26000FF22227423B9324B0BB1AFF3008062B6E8
:10A27000B8F1000F04D0002140F60B10AFF30080BE
:10A2800003B0BDE8F08F731904EB4303DFF89CB013
:10A29000012283F8282001230193ABF1200A2EE745
:10A2A00097F82830012B3FF424AF043B022B16D93A
:10A2B000002140F6DB00AFF3008000F02EFC00210F
:10A2C00040F6DF00AFF30080FEE6B8F1000F3FF488
:10A2D0001EAF002140F6F100AFF300800FE701232D
:10A2E00087F82830EBE7B8F1000F06D0002140F2E4
:10A2F00046300192AFF30080019A09EB0603234434
:10A300009A728FE7202D95D005EB461204EB42029E
:10A3100092F829205A72202274E740F6C601702074
:10A3200000F0A8F8B80E002000000000E00E0020A9
:10A330000000000000000000BFF34F8F0549064BEE
:10A34000CA6802F4E0621343CB60BFF34F8F00BFD3
:10A35000FDE700BF00ED00E00400FA05094B012213
:10A360005A604FF0FF32C3F80823074B4FF4804286
:10A37000C3F88020BFF34F8FBFF36F8FC3F88021E6
:10A38000704700BF00E0004000E100E0094B0122FF
:10A390005A604FF0FF32C3F80823074B4FF4805246
:10A3A000C3F88020BFF34F8FBFF36F8FC3F88021B6
:10A3B000704700BF00C0004000E100E0084B0022F1
:10A3C000C3F8FC2F0122C3F8FC2F064B0222C3F86E
:10A3D0008020BFF34F8FBFF36F8FC3F8802170478A
:10A3E0000010004000E100E0F8B51B4E3378054650
:10A3F0000C4617466BBBFCF7EDFE184B7760002D43
:10A4000008BF1D4628463472FFF7D8FFFFF7BEFF8E
:10A41000FFF7A4FFFDF790F90546C0B9FEF7E6FC8B
:10A42000FDF77EF9FDF7C8F800F0A6FA002C0CDB6A
:10A4300004F01F026409A40004F1604404F56144BF
:10A4400001239340C4F880312360012333702846F0
:10A45000F8BD4FF0FF35FAE7600F002062E6030019
:10A4600008B572B6024B5B6803B19847FFF764FF0B
:10A47000600F00201FB572B6134B5D688DB9FFF7F2
:10A480005BFFB2FBF6F2DCB20133002AF9D104F132
:10A4900010036B4403F80C2C0A2234B901A8A84716
:10A4A000EDE7024600230A26EDE7631E04AEDCB2A8
:10A4B00056FA83F3B0FBF2F602FB1600303003F8D5
:10A4C0000C0C3046E9E700BF600F0020074B93F902
:10A4D0000830002B09DB5A09012103F01F0301FAA0
:10A4E00003F34032024941F822307047600F0020E8
:10A4F00000E100E01B4B4FF4805270B5C3F88020A0
:10A50000BFF34F8FBFF36F8F174D184C0021C5F865
:10A510000011C3F880212669236943F010032361E9
:10A520000123C5F8043306F010062B60D5F800317E
:10A53000A3B11EB9236923F0100323610A4B012242
:10A54000D3F808055A60C3F808230022C3F8002195
:10A55000044B4FF48052C3F8802170BD00F0DDFA47
:10A56000E4E700BF00E100E000C0004000ED00E0D3
:10A5700038B50C49024605200138C0B2FF2803D186
:10A5800048216920FFF776FF01EBC0031D7905F034
:10A59000FF04002DF0D141F8302001225C719C7144
:10A5A0001A7138BD700F0020042808B503D958214E
:10A5B0006920FFF75FFF094B03EBC0000379012B14
:10A5C00001D05921F4E7437982790133DBB29A4211
:10A5D00018BF4371BDE80840FFF778BF700F002037
:10A5E00070B5124C06250026013D15F0FF0500D17F
:10A5F00070BD94F8281004EBC1031A79012A09D11F
:10A6000058799A79904205D05A79D2B29A7154F811
:10A610003130984794F828300133DBB2042B94BFD3
:10A6200084F8283084F82860DEE700BF700F00202F
:10A6300008B500F024FA70B900F02AFA58B900F011
:10A6400030FA40B900F03FFA044A054B002808BF31
:10A650001346184608BD024BFBE700BF00E7014068
:10A660000C05004008B500F02EFA08B3EFF3108097
:10A6700072B6104A1369116941F010011161A2F517
:10A68000406203F01003D2F80011D2F804210A430B
:10A6900000D040BF20BF00BF00BF00BF00BF23B934
:10A6A000044A136923F01003136100B962B608BDB0
:10A6B00020BFFCE700ED00E0014B01229A777047D4
:10A6C000D80F00202DE9F04786468C460846089EA4
:10A6D000154674461946002B40F0C2808542B2FAF6
:10A6E00082F245D94AB1C2F1200300FA02FC2EFAE7
:10A6F00003F3954043EA0C0C94404FEA154EA8B280
:10A70000BCFBFEF8230C0EFB18CC08FB00F943EA57
:10A710000C43994528D9EB1808F1FF3704D2994525
:10A7200002D9A8F102072B44A3EB0903A4B2B3FB9F
:10A73000FEFC0EFB1C330CFB00F044EA0344A04279
:10A7400014D92C190CF1FF3304D2A04202D9ACF178
:10A7500002032C44241A43EA07401EB1D4400023CC
:10A7600034607360BDE8F0874746DDE76346F1E794
:10A7700092BB431B01214FEA154EAFB2B3FBFEFC67
:10A78000200C0EFB1C330CFB07F840EA03439845F2
:10A7900062D9EB180CF1FF3004D2984502D9ACF124
:10A7A00002002B44A3EB0803A4B2B3FBFEFC0EFB98
:10A7B0001C330CFB07F744EA0344A7424ED92C197B
:10A7C0000CF1FF3304D2A74202D9ACF102032C44AE
:10A7D000E41B43EA0040C0E7C2F1200320FA03F182
:10A7E000954090402EFA03F303434FEA154EAFB263
:10A7F000B1FBFEFC0EFB1C10190C0CFB07F841EA28
:10A800000041884504FA02F422D969180CF1FF309E
:10A8100004D2884502D9ACF102002944A1EB080119
:10A820009BB2B1FBFEFC0EFB1C110CFB07F743EACD
:10A8300001439F420ED9EB180CF1FF3104D29F4225
:10A8400002D9ACF102012B44DB1B41EA004192E743
:10A850006046E3E76146F7E76046A3E76346B7E78C
:10A86000834206D916B9002108467BE7C6E900E015
:10A87000F9E7B3FA83F78FB9834201D3724508D859
:10A88000BEEB020460EB030301209C461EB90021CD
:10A8900068E73846FAE7C6E9004CF8E7C7F1200C4C
:10A8A000BB4022FA0CF41C432EFA0CF120FA0CF3F4
:10A8B000B84001434FEA14490EFA07F5B3FBF9F823
:10A8C0001FFA84FE09FB18300B0C08FB0EFA43EA52
:10A8D00000439A4502FA07F240D9E31808F1FF3025
:10A8E00004D29A4502D9A8F102002344A3EB0A033B
:10A8F00089B2B3FBF9F809FB183308FB0EFE41EAF5
:10A9000003418E452CD9611808F1FF3304D28E45DE
:10A9100002D9A8F10203214443EA0040A0FB0298B7
:10A92000A1EB0E014145CE46434602D306D14D452B
:10A9300004D2B9EB020E68EB04030138002EA6D056
:10A94000B5EB0E0261EB030101FA0CFC22FA07F3EE
:10A950004CEA0303F940C6E9003198E74046C5E7F1
:10A960004346D9E7034613F8012B002AFBD1181AF6
:10A9700001387047FCF72EBC70B5FCF76BFC002467
:10A9800005462646E0B2854200D870BDFCF768FC5B
:10A990000134868480F82660F4E7FDF745B908B5F0
:10A9A00000F0AFF828B14FF080430222C3F8342CF6
:10A9B00008BD00F088F80028F5D100F099F80028CB
:10A9C000F1D1F5E74FF0804301221A6070474FF054
:10A9D0008043D3F8080400F0010070474FF0804333
:10A9E000D3F8140400F0010070474FF08043D3F80F
:10A9F0001C0400F0030070474FF080410246D1F87C
:10AA00001804D1F8181410F4803004D001F00300B9
:10AA1000831A58425841704707B56846FCF7FCFF57
:10AA2000DDE900024FF080730021E2FB030103B077
:10AA30005DF804FB08B5FCF7D9FFBDE80840FCF75A
:10AA4000BFBF0346002018707047EFF3108272B644
:10AA500003780121DBB2017002B962B6012B0CBF91
:10AA60006FF0220000207047EFF3108372B60022CF
:10AA7000027003B962B600207047FFF7B1BD4FF016
:10AA80008053D3F83001A0F10F035842584170476A
:10AA90004FF08053D3F83001A0F10A0358425841D7
:10AAA00070474FF08053D3F83001A0F10E035842A5
:10AAB000584170474FF08053D3F83001A0F1100394
:10AAC0005842584170474FF08053D3F83001062860
:10AAD00003D0431C584258417047012070474FF043
:10AAE0008053D3F83001A0F10D035842584170470C
:10AAF0004FF08053D3F83001A0F108035842584179
:10AB0000704708B5FFF7C4FF30B14FF08053D3F85A
:10AB10003401B0FA80F0400908BDFFF7A3BDFFF78C
:10AB2000A1BD00280CBF6FF0150000207047002069
:10AB300070470723037000207047002070470020F3
:10AB40007047000010B50B4A13889378938891687A
:10AB5000127B82709BB24FF0FF344460102403716B
:10AB60001B0A04704371192434234470C170C371EB
:10AB700010BD00BF2015002070B50E490B888D78E0
:10AB80000D4985700C889AB214FA83F39BB20B4C72
:10AB90000B80192101702178C3704E1C1B0A0371B0
:10ABA00042713023C2F30322267041708271C37157
:10ABB00070BD00BF2015002066330020CB3300207D
:10ABC000F7B5654E3378002B00F08A80634F3C78F0
:10ABD000002C00F08580362B614D65D022D8192BD2
:10ABE0005ED010D8102B37D0112B4AD000246846E5
:10ABF0003C703470FFF7C0FF2C706A4608210020BB
:10AC000011F012FF3BE0312BF0D14FF0FF32CDF8C5
:10AC100001208DF805208DF80030524B1B88ADF8CF
:10AC200006301CE0502B49D0512B54D0472BDDD19E
:10AC30004FF0FF3201924C4A8DF800304B4B1278A6
:10AC40001B788DF802204A4A8DF8013012788DF871
:10AC50000320312B03D1E0E76846FFF773FF631E43
:10AC6000DBB22A783B700BB933702B70002AC4D04A
:10AC70006A460821002011F0EBFE0028BDD103B088
:10AC8000F0BD4FF0FF328DF800307F23ADF8052086
:10AC9000CDF801208DF8053030238DF80730DEE740
:10ACA0006846FFF769FFDAE74FF0FF328DF80030B2
:10ACB000CDF80120ADF805200223EEE74FF0FF327A
:10ACC000CDF801208DF80030002201238DF80330EB
:10ACD0008DF80520A3E727490123CDE90013BEE73E
:10ACE000254A1368591C1160244A5A43B2F1333F74
:10ACF00003D86846FFF726FF7FE703F03F033D2BAD
:10AD00000CD14FF0FF33CDF80130ADF805303623CC
:10AD10008DF8003002238DF807306EE73E2B0FD1FF
:10AD20004FF0FF33CDF8013050238DF80030002272
:10AD300001238DF803308DF80520ADF806305CE76F
:10AD40003F2B04D10B4A0123CDE9002355E7684688
:10AD5000FFF712FF51E700BFCA330020C9330020BC
:10AD6000C833002064330020EA020020E9020020FA
:10AD7000E802002051FF00011C150020CDCCCCCCF6
:10AD800090F82C10002944D190F82D30032B02D0DC
:10AD9000802B02D07047FFF713BF43784E3B022B46
:10ADA00037D8C378312B21D1B0F809201948037066
:10ADB00019480378FF2B1CBF0133D9B2B2F57A5F73
:10ADC000164B017002D903221A70704714490A8089
:10ADD00000211970134BBFF35B8F53E8001F43E84A
:10ADE00000200028F9D1BFF35B8F7047462B10D1AC
:10ADF000837A012B0DD1037A417A0B48DA0902706C
:10AE00000A4A03F07F031170012B094A38BF01235E
:10AE100013707047E9020020EA020020E8020020D7
:10AE200064330020D0000020C8330020CA33002043
:10AE3000C93300202DE9F04192B04F4812F0ACFC2C
:10AE400050B980F31188BFF36F8F0323184602DFD8
:10AE5000002012B0BDE8F08105F066FA98BB4748C3
:10AE600005F074FA78BB05F0A3FA60BB444A106899
:10AE700051680AAB03C30AAD90681860284612F007
:10AE8000FDF90446F8B9FFF79BFE2146204611F074
:10AE9000B9FDC0B9384E3B4FB46823680BBB3A4A82
:10AEA000BFF35B8F4FF0FF3152E8003F42E80010E4
:10AEB0000028F9D1BFF35B8F002B4DDA002142202F
:10AEC0000DF0C4FAE9E7002383F31188BBE70D2AEC
:10AED000E3D03B685E2B3CD8591C39602B49CA54DF
:10AEE000DBE70DF117013046984703460028D6D11D
:10AEF0009DF817200A2AEAD13A682448835442B3BD
:10AF000009AB019308AB00932149029507AB06AA50
:10AF10000DF00AFE05281CD1069B9DF828C040F6BE
:10AF2000FF70984228BF1846079BFE2B28BFFE23C0
:10AF3000D9B2089B4FF6FF729A4228BF1A46154BAA
:10AF400092B280B2188099709A80099A9A6083F8B8
:10AF50000CC000233B60A0E70F4A202128460DF0DB
:10AF6000AFFDA84618F8011B0029A7D0B3683046EA
:10AF70005B689847F6E700BFCCE3030081AD0200B1
:10AF800080E6030018150020D00000206833002060
:10AF900054EA03002015002066EA0300014B1B68F9
:10AFA000184700BFD400002007B50B460021024619
:10AFB0000091034800F068F803B05DF804FB00BF9F
:10AFC0009DAF0200F0B5094E016802460A27002035
:10AFD0000B4601311C78355D6D0701D41360F0BD5F
:10AFE00007FB0043A3F13000F2E700BF5FEC030072
:10AFF0002DE9F84F15469A46D378224A12F803B045
:10B000006F2B80460F460BF0030B29D024D8582B0A
:10B010000CBF10260A26DDF8289032460023404651
:10B020003946FCF7BDF8092AD4B21ED83034B045F1
:10B03000E4B277F1000709F8014D01D3D14511D8E9
:10B040002B789B0605D5082E15D1AB7843F0080365
:10B05000AB704846BDE8F88F03F0F703702BD7E7D5
:10B060000826D8E780460F46D7E7BBF1010F0CBF93
:10B0700037345734DBE7102EEBD1AB7843F01003B5
:10B08000E6E700BF5FEC03002DE9F04F97B08A467A
:10B09000039016461C460025307808B928464BE335
:10B0A000731C2528049307D0039B5146984700281A
:10B0B000C0F242830135F0E11822002110A812F0FD
:10B0C000F4FE7378252B00F0A3800023711C9846B2
:10B0D0009E469C4618460F4611F8012B2B2A00F07D
:10B0E000C68000F2BD80202A00F0C480232A00F030
:10B0F000C4802BB19DF8483043F040038DF84830B0
:10B10000B8F1000F05D09DF8483043F020038DF8CA
:10B110004830BEF1000F05D09DF8483043F01003D1
:10B120008DF84830BCF1000F05D09DF8483043F051
:10B1300008038DF8483028B19DF8483043F00403E7
:10B140008DF848309DF8483003F04401442903D17C
:10B150006FF386138DF848309DF84830099743F017
:10B1600080032A2A8DF8483040F08C809DF84930C1
:10B1700043F001038DF849307B1C1A782E2A9DF884
:10B1800049200CBF0121002161F341028DF84920C3
:10B190000CD15A1C09925A782A2A40F083809DF8D3
:10B1A000492042F004028DF8492002331A786C2AB3
:10B1B00000F0A48000F28680682A00F08C806A2A61
:10B1C00000F0A5804C2A00F0AA801A4612F8013B34
:10B1D0000492782B9DF849208DF84B3000F21781AE
:10B1E0006D2B00F2A980692B00F21181572B00F220
:10B1F000BE80412B03D0453B022B00F208819DF815
:10B200004A30042262F302038DF84A300123CAE077
:10B21000B21C04928DF84B309DF84930D90740F1AB
:10B22000FD8054F8048BB8F1000F07DA9DF8482030
:10B2300042F004028DF84820C8F100085A0740F196
:10B24000F68054F804BBBBF1000F80F2F5809DF846
:10B2500049306FF341038DF849304FF0FF3BEBE08D
:10B260002D2A0DD0302A7FF444AF012333E74FF06D
:10B27000010C30E74FF0010E2DE74FF001082AE7EF
:10B28000012028E709A8FFF79DFE099BBB423FF478
:10B2900074AF9DF848201390C00F60F341028DF801
:10B2A00048206AE709A8FFF78DFE9DF84830149002
:10B2B000C3F3400242EAD07262F341038DF8483092
:10B2C000099B73E7742A26D07A2A7FF47EAF9DF813
:10B2D000492006210CE05A78682A9DF8492006D1B9
:10B2E000012161F3C6028DF8492002336DE7022186
:10B2F00061F3C6028DF84920013366E75A786C2A5B
:10B300009DF8492001D10421EBE70321F0E79DF8E6
:10B3100049200521ECE79DF849200721E8E7BDF821
:10B32000482022F4F04222F0020242F4804242F02D
:10B330000202ADF84820DFE76E3BD9B201238B4013
:10B3400040F282410B4238D113F0240F52D1DF0773
:10B350005DD59DF84A30032161F302038DF84A3030
:10B3600002F07803A3F14000434243411BE0A3F104
:10B370005801C9B2012000FA01F111F4624F7FF4C3
:10B380003EAF40F6010739421DD111F4043F3ED0D3
:10B390009DF84A3060F3020302F07802402A8DF8EB
:10B3A0004A3034D000239DF84820C2F340010B43BB
:10B3B00063F341028DF848202EE79DF84A300221C0
:10B3C00061F30203E8E79DF84A10022002F07802D8
:10B3D00060F30201402A8DF84A1002BF9DF8481020
:10B3E00041F001018DF84810632BDBD1131E18BF0B
:10B3F0000123D8E79DF84A30032161F3020312F0DC
:10B40000780F8DF84A3014BF01230023CBE79DF855
:10B41000483043F001038DF84830C3E79DF94820D8
:10B42000002AB4BFDDF84C804FF0FF3806E79F07D5
:10B430007FF513AFDDF850B09DF849100023CDE93A
:10B4400013339DF84A3003F00703012BC1F3C30106
:10B4500033D1CB1E042B04D8DFE803F0214646216C
:10B460002100236801294FEAE372CDE910321CD193
:10B470009DF94030DA17CDE9103204349DF8483098
:10B4800013F0030750D0049B03983246514610F046
:10B49000A0FF0028C0F250810544049EFCE554F84A
:10B4A000043BDA17CDE91032E8E70229E5D11AB2F8
:10B4B00043F3C033CDE91023DFE7022B24D1CB1EA9
:10B4C000042B04D8DFE803F0181010181800012925
:10B4D00054F8043B4FF0000214D00229CDE9103299
:10B4E000CCD19BB21093C9E7073424F00704F4E8E9
:10B4F0000223CDE91023C1E754F8043B1093002345
:10B500001193BBE7DBB2CDE7042B08D1073424F05D
:10B510000704D4E900230834CDE91023AEE7032B58
:10B52000ACD154F8043BDDE79DF84B007828B4D843
:10B5300062281DD825283FF4B7AD5828ADD10DF1AC
:10B540003E030093DDE910010AAB12AAFFF750FD9C
:10B55000BBF1000F814680F29980B9F1000F9CD0B9
:10B560000DF13E06A6EB0903002F50D001334EE04B
:10B570006338152891D801A252F820F0FDB50200D9
:10B5800061B602009BB402009BB402009BB40200AF
:10B590009BB4020061B602009BB402009BB402009F
:10B5A0009BB402009BB40200EDB6020087B6020015
:10B5B000AFB602009BB402009BB40200D5B50200F6
:10B5C0009BB4020087B602009BB402009BB4020049
:10B5D00087B60200BBF1000FDDF840900ADB594648
:10B5E000484612F06CFCB9F1000F3FF456AF09EB7E
:10B5F000000677E04846FFF7B5F9F8E7109B8DF8AD
:10B60000283000270DF129060DF1280901239DF8A6
:10B610004A1011F01002069200F082800233139A51
:10B62000059213444A0644BF14995B18B8F1000F01
:10B6300040F38F80A8EB03089DF848305807C3F308
:10B64000800B00F18680590679D53FB1039B5146A6
:10B650003846984700286FDB01355F4630236FE09E
:10B660001E075CBFC3F300135F01DDE9102348BF71
:10B670002B27002BBFF663AF524263EB4303CDE9A8
:10B6800010232D275BE7002759E700279DF8481076
:10B690000DF13E03A3EB09036FF386119B458DF873
:10B6A00048107FF65AAFABEB0303139355E710989E
:10B6B00080B30DF13E060AAB009612AA0021FFF7F7
:10B6C00097FCBDF84A3003F0EF0343F4F04343F036
:10B6D0001003BBF1000F8146ADF84A30D5DA0028DF
:10B6E0003FF4DBAEA6EB0903002790E7109B072988
:10B6F0003FF6D3AEDFE801F00C04060C08080C0C92
:10B700001D70CAE61D80C8E6EA17C3E90052C4E608
:10B710001D60C2E6304E0746A6F10509052376E70F
:10B72000080748BF01337AE7184607935146039B41
:10B7300098470028079B04DA17B0BDE8F08F202354
:10B74000C346594600290BF1FF3BEDDC45446D1A19
:10B75000D84637B1039B5146384698470028EBDB63
:10B7600001359DF84A30DA0601D41B0706D5039B44
:10B770005146302098470028DEDB0135069B3BB15F
:10B780009DF84B00039B514698470028D4DB0135B8
:10B79000059F2F4406E0039B514630209847002820
:10B7A000CADB01357B1B002BF5DC039833464A4688
:10B7B000514610F00EFE0028BEDB0544A844A8EB5D
:10B7C0000503002B7FF769AE039B51462020984765
:10B7D0000028B1DB0135F2E772EA03002DE9F047FA
:10B7E000058B04462807904611D4022905F0070569
:10B7F00040F0CC80204610F01EFE78B10138218B3D
:10B80000042811D8DFE800F0C2106D8595000129E9
:10B810000CBF45F0100545F02005258388F31188FD
:10B82000BFF36F8FBDE8F08701F0070AAA4500F06B
:10B83000A5800027B9463E46A368002B00F0BC80D7
:10B8400041F00801218388F31188BFF36F8FA1684D
:10B85000002900F0BA800D68002900F0B680D1F808
:10B860000480334652462046C047002D76D02B68D0
:10B8700029461D46F0E701F007035A1F012A1BD88D
:10B88000002221F00701062B276889B2C4E90022B3
:10B8900009D13B4603E0628B013262831B68002BB7
:10B8A000F9D141F002012183204610F0C4FD0028A7
:10B8B0007AD041F0200176E0042B0AD121F0070173
:10B8C00089B22183204610F0B6FD10B141F020016D
:10B8D0002183218B01F0070AAA454FD00027B946E2
:10B8E000AAE7236921F0070141F00601062DD3F8EC
:10B8F000009021832DD1B9F1000F3FD041F0080114
:10B90000218388F31188BFF36F8F3A492046C847D7
:10B9100029E021F00701236941F0040189B2042DD7
:10B92000D3F804902183E6D000273E464FF0040A66
:10B9300082E721F00701236941F0050189B2052D55
:10B94000D3F808902183D6D000273E464FF0050A51
:10B9500072E700273E464FF0060A6DE72B4687E761
:10B96000B9F1000FD1D1EFF31188402383F312888E
:10B97000BFF36F8F238B23F008032383258BEA0605
:10B980002ED525F01003238305F007056669218B6A
:10B99000002EBFF670AF00232768C4E9003321F002
:10B9A000070141F001012183218B01F0070AAA451B
:10B9B0004FF000097FF440AF002F9CD041F0080108
:10B9C000218388F31188BFF36F8F002FC8D03D68A3
:10B9D000394633465246204610F059FD2F46F4E7CB
:10B9E000AB067FF51BAF25F02003238305F0070589
:10B9F00000E700BFBBC40300014B03600020704799
:10BA0000A8E60300F0B40C4B0C4E5F6A0C4BB3423B
:10BA100003D36FF08500F0BC70475D68BD4209D369
:10BA20001C693CB195F802C00579AC4502D12346AA
:10BA3000F0BC18472433EAE730150020A8040020A2
:10BA4000840400202DE9F047134CDFF85080DFF824
:10BA5000509005460E461746444503D36FF08500C7
:10BA6000BDE8F0876268D9F824309A4212D3A369FE
:10BA700083B190782979884205D13A4631462846E3
:10BA8000BDE8F04718475279012A03D13A463146BA
:10BA9000284698472434DFE784040020A8040020C7
:10BAA000301500202DE9F0410B4CDFF830800546C1
:10BAB0000E461746444502D36FF0850009E06369DE
:10BAC0000BB92434F6E73A46314628469847002811
:10BAD000F7D1BDE8F08100BF84040020A804002055
:10BAE00010B5044611F095F810F1780F00D050B958
:10BAF000054A204610F05EFED2F8C43023EA000367
:10BB0000C2F8C430002010BD30150020024B0022C6
:10BB10001A605A60704700BFEB15002070B50B4BE0
:10BB20000B4CA34201D3002070BD196A1E7F002276
:10BB30000439D5B2AE4201D82433F2E7013211F80C
:10BB400032508542F5D10120EEE700BF8404002089
:10BB5000A804002008B509480378C3F341130A3349
:10BB600050F823303BB100F1080200F11001984772
:10BB7000C043C00F08BD1846FCE700BF30150020C9
:10BB800004282DE9F14FDFF8989004460F4616D0AF
:10BB900001282DD1DFF88C8098F8B93043B300F03C
:10BBA00003FE214D4D4520D2D5F820B04FF0000ABC
:10BBB0002B7F5FFA8AF6B34204D82435F2E7FFF709
:10BBC000A5FFE7E70BEBC6060AF1010A307911F091
:10BBD00020F80246307910F0EDFDD8F8C430002A84
:10BBE00023EA0003C8F8C430E2DA002388F8B93049
:10BBF0000D4D4D4508D30B4B1B6A6BB139462046A2
:10BC000001B0BDE8F04F1847EB681BB13A4621463A
:10BC1000284698472435ECE701B0BDE8F08F00BF17
:10BC2000A8040020301500208404002073B5C4B29D
:10BC300063060D468DF8074007D02046FFF76EFFDC
:10BC400078B10D4B93F8BA0058B10B4E204655B160
:10BC500002F04EF9F3691BB10DF107010820984776
:10BC6000012002B070BD02F06BF9F369002BF7D030
:10BC70000DF107010920F2E73015002073B5867831
:10BC80008DF80060037942791C4C43EA0223ADF839
:10BC90000230C378304603F003038DF8043010F00F
:10BCA00089FDD4F8C430184205460BD0304600F068
:10BCB0005DFD3046FFF714FF11F0EFFE10B996203E
:10BCC0000CF0E2FB684602F0EFF810F1780F03D0B9
:10BCD00010B1002002B070BD9DF8000002F06CF9B8
:10BCE00010F1780F01D00028F3D1D4F8C43001202E
:10BCF0002B4384F8B900C4F8C430EBE730150020BA
:10BD00002DE9F047A34EB36904460F461546FBB92B
:10BD1000237803F01F03012B00F09D80022B00F01D
:10BD2000048133BB94F900002A686178002834DA72
:10BD3000062912D008292BD0D9B9012313705170CC
:10BD400096F8C3305B0043F00103137002232AE12D
:10BD500098470028DCD100200DE06288100A011FFE
:10BD60000129844605D9072803D8716AD2B20C7814
:10BD70001CB96FF01500BDE8F0874E78664503D119
:10BD80009A4200F00B8101332144F0E70B780AE17D
:10BD900096F8BA301370012305E101390829E8D873
:10BDA00001A353F821F000BF41BE020073BD0200A1
:10BDB0004FBE020073BD0200CDBD020073BD020084
:10BDC00073BD020073BD0200D9BD0200A07802F06D
:10BDD00059F80028BFD0CCE76388756A63BBFFF7CA
:10BDE00095FE638886F8BA30F369002BB3D06A49B0
:10BDF00003209847AFE76B78042B10D0052B11D0A8
:10BE0000022B04D16F796388BB4208BF01202B78D5
:10BE10001D442B78002BEED10028AAD0DFE795F83F
:10BE20000380F4E76388BB42F1D1B8F1000FEED193
:10BE30002846FFF723FFEAE7FF270020B846E8E798
:10BE40006388012B95D1002386F8C33083E763888C
:10BE5000012B8ED1F8E796F8BA30D5F800C0002B48
:10BE600087D0756AA38894F804E02A4610780028E1
:10BE70003FF47FAF5178022904D192F80480F04555
:10BE800000F293800244F1E78CF800208CF8012046
:10BE9000396060E7154494E00B2A7FF46AAF00270D
:10BEA0004FF0FF08C146BA4606E06B78042B0FD06E
:10BEB000052B21D02B781D442B78002BF5D1F3696D
:10BEC00013B1514607209847002F7FF444AF50E745
:10BED00095F80280A38895F803909845EAD1638885
:10BEE0009945E7D1B8F1070F1CD806EB0803AA461D
:10BEF00083F8BB900127DDE7A3884345DAD1A37817
:10BF00004B450AD0AF78384600F030FC3846FFF792
:10BF1000E7FDB0FA80F77F09CCE72846FFF7AEFED1
:10BF20000746C7E7AA460027C4E794F900206378CC
:10BF3000002A18DA002B7FF41CAF24792D686306E1
:10BF40000AD02046FFF7EAFD00283FF412AF96F82A
:10BF5000BA30002B3FF40DAF2946204602F010F80E
:10BF600000236B70F2E6012B08D0032B7FF401AFA6
:10BF70006388002B7FF4FDAE012103E06188002976
:10BF80007FF4F7AEA088FFF751FE00287FF4E3AE00
:10BF9000EFE600BF30150020EA15002002282960D6
:10BFA0007FF4F4AE4B883B60D5E694F900006278EC
:10BFB0000028BFF671AF002A3FF466AF0A2A7FF46B
:10BFC000D8AE2A78002A3FF4D4AE697804297FF4E9
:10BFD00061AFA9788B427FF45DAF072B96BF9B19A9
:10BFE000002393F8BB308CF80030D4E613B5164C20
:10BFF000237DF3B9E268A168019201AB802010F0C3
:10C00000E7FB019AA3681344A360E3689B1AE3600B
:10C010006BB962B12369E2889A4208DD94F8C820BE
:10C0200093FBF2F102FB11330BB90123237502B02C
:10C0300010BD00231A4619468020237502B0BDE8C2
:10C04000104001F0E3BF00BF3015002030B585B0CF
:10C05000002302460D460193002858D1002935D10E
:10C0600008220B460DEB020110F0ECFD002804DA6B
:10C07000802001F03DFF05B030BD2A4C029A2260BD
:10C08000039A626004F13802A2609DF90820BDF8AD
:10C090000E302575002AC4E903550ADB802B04D92C
:10C0A000802001F025FF0020E3E713B1C4E903334A
:10C0B000E1E7FFF74FFD0028DAD0E28823699A42D2
:10C0C000D4BFE260E360FFF791FFD4E7154CD4E9F9
:10C0D0000215002D01AB04DC10F0B4FD0028CADA13
:10C0E000C6E72A4610F0AEFD0028D9DB019AA36806
:10C0F0001344A360E3689B1AE360002BBBD104F1F7
:10C100003803A360FFF726FD0028DCD1B0E78028C4
:10C11000B1D1044BDA68002AD5D11B7D002BD2D1D6
:10C12000A9E700BF30150020054B064A9A62064A6F
:10C13000DA62064A1A63064A58629A61002070471A
:10C140003015002001BD020005BA0200A5BA0200A8
:10C1500045BA02002DE9F3410446474D47484FF0E8
:10C16000FF334FF0FF320BF0EFFB95F8B830002BA8
:10C170007BD16B6A83B142482C62E8616E6A02F03F
:10C180005FF801F04DFE041E10DA3C480BF054FC41
:10C19000204602B0BDE8F08100F0BEF8FFF7C4FF12
:10C1A0006B6A002BE7D14FF0FF34EEE700F01EFB87
:10C1B000041EEADB7378012B5AD1F379002B57D098
:10C1C0000026684685F8C830ADF802308DF8046066
:10C1D0008DF8006001F068FE041ED6DB80276846FB
:10C1E0008DF8007001F060FE041ECEDB254930465C
:10C1F00002F012F8041EC8DB2249384602F00CF89F
:10C20000041EC2DB204CDFF8848044451AD3002092
:10C2100001F0D2FE041EB8DBD5F8C430802043F014
:10C220000103C5F8C43001F0C7FE041EADDBD5F82C
:10C23000C43043F48033C5F8C430012385F8B830E6
:10C240000024A2E7276A0026227FF3B29A4201D88F
:10C250002434DAE707EBC30257F83310107901F002
:10C26000DBFF01360028EFD09DE76FF077048CE705
:10C270006FF0150489E700BF30150020AC030020E3
:10C2800081BB02004DC0020084040020A8040020ED
:10C2900030B51F4B8BB005AA03F11005186859681B
:10C2A000144603C40833AB422246F7D11B782370EF
:10C2B0001022002101A811F0F8FD122200211548DA
:10C2C00011F0F3FD102101A810F0ECFD00281BDD9A
:10C2D0000828B8BF0820093801AB0E491A180020F9
:10C2E00012F8013F0AAC04EB131403F00F032833D8
:10C2F0006B44013014F8144C13F8143C0C700828EB
:10C300004B7001F10201EBD102480BB030BD00BF10
:10C3100073EA0300CD3300202DE9F04F744B93F8FE
:10C3200000B087B0BBF1000F03D0724807B0BDE882
:10C33000F08F704C00264FF0011AB0463546B146DA
:10C3400023783BB96C4B02349C42F3D1684A0123F9
:10C350001370EAE76378052B1BD8DFE803F08E0340
:10C36000C68E1D39402304A88DF810B0ADF81230E8
:10C370008DF814B010F038FC40B1082304A8ADF8D3
:10C38000123010F031FC08B1ADF812B0BDF8123027
:10C39000E37123781C44D3E7E378002BF9D1A37829
:10C3A0006BB108F101085FFA88F8F2E76B689C420C
:10C3B00007D02435514B9D42F8D30020B6E7504DAD
:10C3C000F8E7AB68002BECD0414620469847E8E7F9
:10C3D000002DF2D000222B7F9A42EED2296AA0785B
:10C3E00001EBC2010B79984201D00132F3E701273A
:10C3F000E07800F003008DF81400207994F805C06F
:10C4000040EA0C20ADF8120094F902000028FBB2BB
:10C4100028DA07F110004FF0010C0CFA00F010EAD6
:10C420000A0F26D143F080008DF8100004A8CDE952
:10C430000213019210F0D8FBDDE90121039BC0B982
:10C440009DF81020A27012F0800F18BF10330A71EF
:10C4500018BFDBB24FF0010214BF9A40BA404AEA5B
:10C46000020A96E70120B84010EA0A0F01D11846E7
:10C47000DAE70137102FBBD1B7E7032E1DD1FFF745
:10C4800007FF074668B1FEF76DFA102809D1384654
:10C49000A31C07F1100250F8041B43F8041B904240
:10C4A000F9D123786FF00201E218091B04EB530362
:10C4B000D14213D50136F6B26BE7002EF1D1B9F1B6
:10C4C000000F3FF47AAFA4EB090389F80230C3F3FD
:10C4D000072389F8033089F80480EBE702F801BCF0
:10C4E00013F8010902F8020DE2E7A14651E700BF87
:10C4F000CC330020E003002083040020A8040020A7
:10C500008404002010B5094B00211A461C7884428F
:10C5100004D15C6814B102EB811010BD0131042913
:10C5200003F14003F2D10020F7E700BFFC15002023
:10C530002DE9F34150F8283C10F82C6C10330446D8
:10C540000AD1036950F8202C980736D5D2B959077B
:10C5500015D5002344F8283C54F8283C10330BD060
:10C5600054E9077554F8148C11F097FA00284FD04D
:10C570002E48214611F075FA02B0BDE8F08143F073
:10C580000403236154F8241C01AB304610F020F959
:10C5900010B16FF01503DDE7019A54F8243C134401
:10C5A00044F8243C54F8203C9B1A44F8203C54F8AE
:10C5B0001C3C134444F81C3CCEE754F8241C01AB4B
:10C5C000304601F09FFD0028E3D1019D54F8243C42
:10C5D0002B4444F8243C54F8203C5B1B44F8203C9A
:10C5E00054F81C3C2B4444F81C3C002DB1D0304680
:10C5F00001F02CFEB5FBF0F303FB1055002DA8D184
:10C6000054F8203C002BA4D0304601F0C3FDA3E732
:10C6100044F8180CA4F110000BF07CFA002DABD0FC
:10C62000424639463046A847A6E700BF38100020EA
:10C630004B1E012B73B506460D460FD8FFF762FF60
:10C64000044668B9012D09D101AB01220DF10301A6
:10C65000304601F057FD019B002BF5D102B070BDB3
:10C6600011F01BFA04F12C0108B1012D05D1084687
:10C6700002B0BDE87040FFF75BBF034802B0BDE801
:10C68000704011F0EEB900BF381000202DE9F74FCF
:10C69000064601911546984610F0E5F80446002834
:10C6A0005BD1EFF3118A402383F31288BFF36F8FBE
:10C6B000DFF8ACB00022002358460BF04FFA70B9F7
:10C6C000DFF8A090A70109EB8414636813F1100F41
:10C6D00014D1019358460BF01DFA019B06E001347A
:10C6E000042C0BF1400BE5D16FF00B038AF311889A
:10C6F000BFF36F8F184603B0BDE8F08F019B206138
:10C70000C4E902350C9B63610D9BA36130466FF059
:10C710000F0309F80760C4F83C80636001F096FDE0
:10C7200058B1304601F092FDB5FBF0F303FB105514
:10C730001DB1E36B43F00403E36318F0020F07D06D
:10C7400007F12C010848494411F08BF90023CDE78B
:10C75000304601F01FFD0346C8E76FF00F03C9E73D
:10C7600018160020FC1500203810002010B5EFF33B
:10C770001184402383F31288BFF36F8FFFF7C2FE4B
:10C7800050B14368103307D16FF08B03436000F161
:10C790002C01044811F065F984F31188BFF36F8F01
:10C7A00010BD00BF38100020F8B50E4C04254027FE
:10C7B000EFF3118687F31288BFF36F8F636810332E
:10C7C00007D16FF08B030848636004F12C0111F06E
:10C7D00048F986F31188BFF36F8F013D04F14004DF
:10C7E000E6D1F8BDFC1500203810002070B50A4CC9
:10C7F0000A4E00253146204611F017F90122A4F116
:10C8000010001146013511F0D4F8042D04F1400454
:10C81000F0D1002070BD00BF2816002031C50200F5
:10C8200070B504460E460179154815460FF0F7FF1E
:10C8300010B394F900206378002A16DB202B04D073
:10C84000222B0ED06FF085000AE02B681A6840F8A2
:10C85000102C9A8820F80C2C9B7900F80A3C0020B8
:10C8600070BD638800F8093CF9E7212BEAD1103844
:10C87000072328603360F2E76FF01200F0E700BF93
:10C88000FC16002008B5014603480FF0D6FF10B192
:10C89000012300F8073C08BDFC16002001690123B4
:10C8A00081F84B300B6833B191F849301BB1024825
:10C8B000083111F0D6B87047381000200169012303
:10C8C00081F84A300B6833B191F848301BB1024807
:10C8D000083111F0C6B870473810002070B5012338
:10C8E00082F8483013680D4614463BB192F84A303E
:10C8F00023B10E4802F1080111F0B3F8D4F89030DA
:10C900009A681B699A4205D17DB904F1180140F675
:10C91000CD4204E004F11801002DF8D00022BDE85A
:10C920007040024800230BF079BA70BD3810002027
:10C9300038B5056995F89E0088B195F89F307BB9A8
:10C9400085F84830D5F890000FF0BFFE002204466D
:10C950000023044805F118010BF060FA204638BDA9
:10C960000020FCE7381000200D4A03460021A0F803
:10C9700048101068C3F8940090889279A3F8980042
:10C9800083F89A2083F89C1083F89B10A3F89E10DC
:10C9900083F8A010402203F14C0011F086BA00BFCA
:10C9A0008CE60300F0B5D0F88C305B681B6A1F7D05
:10C9B00085B0044638460FF056FF0646F8B994F89D
:10C9C0008630E3B1A06F4FF4806203A90FF09CFEA4
:10C9D0000546A0B18306A4F1180308BF00F1FF3596
:10C9E00084F830600193074B039900932A46022391
:10C9F0003846FFF74BFEA06F29460FF0A5FE05B0A5
:10CA0000F0BD00BFDDC8020010B504690023C4F802
:10CA1000A8300C4BC4F8A400596804F1A80269B905
:10CA2000C3E9002204F10800074910F0FEFF04F1F9
:10CA30001800064911F025F8002010BD0A605A6060
:10CA4000F0E700BFFC16002091C80300A5C9020052
:10CA500013B504698DF80710002384F84830D4F822
:10CA6000900001220DF107010FF02FFE10B911F017
:10CA700014F840B12122002304F1180106480BF0FC
:10CA8000CDF902B010BD94F8A130002BF2D00021F6
:10CA900021200BF0DBFCE2E73810002037B514460C
:10CAA0000A1E054620DDD4F88C0004F14C010FF07D
:10CAB0000CFE012384F8493023683BB194F84B30D5
:10CAC00023B1114804F1080110F0CBFFD4F88C1009
:10CAD0004B684A699A1ACB699B1A3F2B04D80123E9
